:0400000022C1FECF4C
:10000400FDCFFCCF3CC1FACFF9CFF8CF37C18CC1BB
:10001400F5CFF4CFF3CFF2CFF1CFF0CFEFCFEECFD8
:10002400EDCF88312621C639863186318631863135
:10003400E7390442E43905212521252125212521FB
:10004400452944ADE47B06000600060006000600D0
:10005400C6186494A1D602A562AD62AD62AD62AD6C
:1000640025840484E0FFE0FFE0FFE0FFE0FFE0FF21
:1000740044CE44AD03A58608853185318531A5314B
:10008400E739A573C45A0500A510A510A510A5103D
:100094004629E620A5186429452945294529052925
:1000A4004631C631C5284528652865284528C52810
:1000B400A631842CA324A529642A642AC529E32310
:1000C400642D642CE017E017E017E017E017E01741
:1000D4006326C434A11E8224021D021DA224011E13
:1000E400432E863265290628062806280628C528B0
:1000F400C6320731C22880294329432960290129AE
:10010400E630A23947290C19452944290C192A211A
:10011400A339A931DE089F00FB08F9089F00BF003E
:100124008E297521F6102629F708FB084629F110B7
:100134003B1973215021A04131193511A0412B21C4
:1001440057197221BF00FF00BF00BF00DF00BF00CE
:100154003A198B291311F51013111311F510F4101A
:100164006F29A431603160316031603160316031B8
:10017400A339863145294529452945294529452954
:100184008631863145294529452945294529452969
:100194008631863145294529452945294529452959
:1001A4008631863145294529452945294529452949
:1001B4008631863145294529452945294529452939
:1001C4008631863945118601451145198601650137
:1001D4008631E709245182A0244145298298C378B5
:1001E400C711A64941F000F861D061C800F800F8D1
:1001F4006571E3B0A298A60182A000F82449E350F7
:10020400C3D804A9A2A0653900F841E06539A278F1
:10021400C3D8A64920F800F841E061C800F800F806
:10022400657965012449C38045394529C380E3685C
:100234006509E741A619C711A621A629C711C71147
:10024400E739F894EE27ECBBF1E0FBBFEBBFE5BF69
:10025400F8E1F1BDE1BD8DE0A2E0BB27ED938A9505
:10026400E9F780E094E0A0E6ED930197E9F7EFE584
:10027400EDBFE4E0EEBFC0EAD0E026C118950A92D3
:100284001A92AA93BA93EA93FA93EFB7EA93F8947B
:10029400A091A000A93008F403C0E0E0E093A0001E
:1002A400E091A100A8E1EA9FF001ED55FF4FDF01C5
:1002B400E091A000F0E0AE0FBF1FEC91E3BDE09130
:1002C400A100A8E1EA9FF001E555FF4FDF01E091AD
:1002D400A000F0E0AE0FBF1FEC91F0E0FBBDEABD63
:1002E400E091A100A8E1EA9FF001ED54FF4FDF0186
:1002F400E091A000F0E0AE0FBF1FEC91F0E0F9BD7B
:10030400E8BD7894E091A000EF5FE093A000E15095
:10031400A1E0D4D2E2BBE991EFBFF991E991B9919F
:10032400A991199009901895AA93EA93FA93EFB7B3
:10033400EA93E6E9E2BFE091A200A091A100AE1722
:1003440008F402C0E0E004C0E091A100F0E03196BE
:10035400E093A100E991EFBFF991E991A991189572
:10036400E0E0E5BFF89462D165D108952397E0E019
:10037400E883E983EA83D6D200E010E0E985FA85D0
:10038400A5D2E093A20040E0E091A200E41708F4B3
:1003940098C050E0583008F092C0E985FA850E17ED
:1003A4001F0708F402C000E010E0F8010F5F1F4FC0
:1003B400AB85BC85EA0FFB1F04901124F8010F5F85
:1003C4001F4FEA0FFB1FE491FE2FE0E0E029F12923
:1003D4009F01F901E070F87F7BD2EF2FF0E0E8870E
:1003E400F901E07EF770F695E79570D2EF83E22F7E
:1003F400EF71EE83A8E14A9FF001ED55FF4FDF0155
:10040400E52FF0E0EA0FFB1FFF93EF93E885FF274A
:10041400662777278AD1DF01CB01E0E0F0E068EFBF
:1004240071E4FFD1A0E0B0E080EA92E4ACD1AF91F6
:10043400BF9142D1EC93A8E14A9FF001E555FF4FEB
:10044400DF01E52FF0E0EA0FFB1FFF93EF93EF814D
:10045400FF276627772769D1DF01CB01E0E0F0E0D1
:100464006CE772E4DED1A0E0B0E080EA92E48BD1E4
:10047400AF91BF9121D1EC93A8E14A9FF001ED54D3
:10048400FF4FDF01E52FF0E0EA0FFB1FFF93EF932F
:10049400EE81FF276627772748D1DF01CB01E0E013
:1004A400F0E068EF71E4BDD1A0E0B0E080EA92E44E
:1004B4006AD1AF91BF9100D1EC935F5F6BCF4F5F77
:1004C40063CF37D22D96089510E0F894E0E0E8BBAE
:1004D400EEE0E7BBE0E4E5BBE0E0E4BBE2BBEFEF6A
:1004E400E1BBE3E0E3BFE6E9E2BFE1EFEFBDE1E05A
:1004F400EEBDE0E0EDBDECBDE7BDE6BDEBBDEABDA4
:10050400E9BDE8BDE2BDE1E7E5BDE0E0E4BDE3BD92
:10051400E5BFE5E4E9BFE0E0EAB9E0E8E8B9E0E036
:10052400E0BFE6B9EDB9E6BFE4B7E0FF53C0E0E0F1
:10053400E4BFE4E6E3BD10E0183008F00BC0E12F9F
:10054400A1E0BCD1E2BBE4E6F0E0FA93EA937BD00D
:100554001F5FF2CFE0E0F0E0F9BDE8BDFBBDEABD0E
:10056400E3BDE4E6F0E0FBBDEABD10E0183008F0BE
:100574000BC0E12FA1E0A2D1E2BBE4E6F0E0FA93E4
:10058400EA9361D01F5FF2CFE0E0F0E0F9BDE8BD8F
:10059400FBBDEABDE3BDE4E6F0E0F9BDE8BD10E073
:1005A400183008F00BC0E12FA1E088D1E2BBE4E6EB
:1005B400F0E0FA93EA9347D01F5FF2CFE0E0F0E077
:1005C400F9BDE8BDFBBDEABDE3BDE2BBA0E0B0E020
:1005D40098D1C6DEE4B7E1FF1DC0A0E0B0E085D14C
:1005E400E33008F402C0E1E005C0A0E0B0E07DD152
:1005F400F0E03196A0E0B0E084D1E0E0E4BFA0E018
:10060400B0E073D1E23008F405C0A0E0B0E0E0E06F
:1006140078D1A6DEE6E2F0E0FA93EA93E0E2F2E0D3
:10062400FA93EA93A3DE7894FFCFFFCFE5B7E068AF
:10063400E5BF0895E5B7EF78E062E5BFEFB77894DA
:100644008895EFBF0895E991F991309639F084EFD8
:1006540091E00197F1F7A8953197C9F708955523CB
:1006640042F4503811F4E0FF04C03196691F791F39
:100674006BF050E8572711F45F9373C05F3F31F07C
:10068400660F000C57956795752F08955F930020AA
:100694000AF073C06CC050E8192E1522880F991FF8
:1006A4009527550F879550E8072E0522660F771F6B
:1006B4007527550F67950895689401C0E8945F9372
:1006C400F2DF703818F07F3F08F44BC056E1571B37
:1006D400AAF4519558300EF4593030F0EFEFFFEF93
:1006E4006FEF7FE777F91AC077275523B9F0EE0F3C
:1006F400FF1F661F771F5A95D1F710C07727583010
:1007040028F0EF2FF62F672F5850F9CF552331F0EB
:1007140076956795F795E7955A95D1F700200AF4F1
:10072400C5D05F910895689401C0E8943097604003
:100734007040B1F0002426F0772312F40094B6D070
:10074400172E7EE1112032F07A95EE0FFF1F661FFF
:10075400111CF9CFEF2FF62F612D5F938ADF5F9184
:100764000895EE27FF27662777275F910895EFEF17
:10077400FFEF6FE77FEF5F910895EFEFFFEF6FE714
:100784007FE75F9108955F9386DF703851F3903867
:1007940041F301240894791F23F41CF300203AF355
:1007A400ECCF0F921F932F933F934F931127222740
:1007B4009927689FA0018F9F302D410D591F6B9F72
:1007C400300D411D591F8E9F27D0BF9F25D06A9F92
:1007D40023D0BE9F1DD0AF9F1BD0AE9F110D291FEC
:1007E400391F491F591FE32FF42F652F522F4F91A3
:1007F4003F912F911F910F9066232AF0550FEE1F02
:10080400FF1F661F02C073954BF229DF5F910895A5
:10081400100D211D391F02C0200D311D491F591F04
:1008240008955F9338DF703821F411200AF49FCFC4
:10083400A4CF903809F495CF01240894970B1BF4A6
:10084400D4F30020F3CF792F1F932F933F934F932B
:1008540011241127222733274427552790E2AE1766
:10086400BF078607410730F0AE1BBF0B860B410B59
:10087400089401C08894551F221F331F111CAA1FFE
:10088400BB1F881F441F9A9551F7F901612D4F91A1
:100894003F912F911F91662332F0550FEE1FFF1FDA
:1008A400661F7A9543F2DBDE5F910895F0956095BB
:1008B4007095E195FF4F6F4F7F4F0895EE230E2EF5
:1008C400EA2F19F0EE0F0A94E9F70895F695E795E3
:1008D400F695E795F695E795F695E7950895FE2F35
:1008E400FF0FFF0B6F2F7F2F0895E199FECFFF932A
:1008F400FFB7F894AEBBBFBBE09AEDB3FFBFFF9167
:100904000895E19B02C0A895FCCF9FB7F894AEBBB5
:10091400BFBBE09A8DB3E81719F0EDBBE29AE19AF8
:100924009FBF08955A934A933A932A931A930A932A
:1009340008955D814C813B812A8119810881089544
:00000001FF
