:0E000000CAC8FECFFDCFFCCFE4C8FACFF9CFBF
:10000E00F8CFDFC834C9F5CFF4CFF3CFF2CFF1CFAD
:10001E00F0CFEFCFEECFEDCF0000000000000000DC
:10002E0000000000000000000000000000000000C2
:10003E0038070000D7060000000000000000BA07D5
:10004E00BA07D706BA075907000000000000BA0722
:10005E00BA07BA07BA07BA0700000000000000008E
:10006E003807BA0738070000000000000000000043
:10007E000000BA070000000000001ED000001ED0D5
:10008E0000000000000000001ED01ED01CC01ED0BC
:10009E001ED00000000000001ED01ED01ED01ED0AC
:1000AE001ED000000000000000001CC01ED01CC0AE
:1000BE000000000000000000000000001ED0000044
:1000CE000000000000000000000000000000000022
:1000DE000000000000000000000000000000000012
:1000EE0080F6000080F6000000000000000080F6A0
:1000FE0080F680F680F680F600000000000080F6A4
:10010E0080F680F680F680F6000000000000000009
:10011E0000E680F600E6000000000000000000008F
:10012E00000080F60000000000000000000000004B
:10013E0000000000000000000000000000000000B1
:10014E0000000000000000000000C80600002807A4
:10015E00000000000000000049070000C806000073
:10016E00A907000000000000A90700000000000021
:10017E00A907000000000000000028070000280763
:10018E00000000000000000000000000A9070000B1
:10019E000000000000000000000000000000000051
:1001AE001E4800001E4800000000000000001E480F
:1001BE0000001C4000001E480000000000001E4809
:1001CE000000000000001E480000000000000000BB
:1001DE001C4000001C400000000000000000000059
:1001EE0000001E480000000000000000000000009B
:1001FE000000000000000000000060F2000060F24D
:10020E00000000000000000060F2000020E200008C
:10021E0060F200000000000060F20000000000002C
:10022E0060F2000000000000000020E2000020E26A
:10023E0000000000000000000000000060F200005E
:10024E0000000000000000000000000000000000A0
:10025E0000000000000000000000494A04210000D8
:10026E000000000000000000000092940842000010
:10027E00000000000000000000009294FFFF1CE749
:10028E001CE71CE7FFFFCF7B00009294FBDE14A55A
:10029E0055AD55AD38C6CB5A0000718C08420000E2
:1002AE0000000000000000000000494AE7398210FB
:1002BE00C318C318E318821000003084FFFFFFFF3D
:1002CE00FFFFFFFFFFFF518C00002421A631863176
:1002DE00C7390421C73924210000000014A52C635E
:1002EE00E73918C6308400000000EF7BFFFFBAD656
:1002FE00BAD6DBDEFFFF8E730000718C0421694AD3
:10030E00718C0000694A518C0000718C0421494A9D
:10031E00718C0000494A30840000D39CFFFFFFFF20
:10032E009EF79EF7FFFF518C0000A63130844D6B77
:10033E006D6B1084108486310000000000000000F8
:10034E002C630842000000000000000000000000C6
:10035E009294EB5A00000000000000008210000092
:10036E000842E739000000000000C739FFFF9AD6A7
:10037E00B294FFFFFFFF86310000B2942C63EF7B37
:10038E0096B56108518C718C000092949294D39C16
:10039E0018C6494A75AD3184000004215DEF55AD94
:1003AE00EF7BFFFF7AD6E31800000000000000008C
:1003BE000000000000000000000000000000000827
:1003CE0020000000000000000000203061D021E07D
:1003DE0041B8211000000000212820E000F800F8AC
:1003EE0020F841B821180000223841F000E800E062
:1003FE0020E020F842C020102100415840E000E8E3
:10040E0000E000E800F862B8212040B000E800E00B
:10041E0000E000F041F04160214021F800F000E0E2
:10042E0000F021F8426000002000418041F800F801
:10043E0021F04158200000000000200821500158F2
:10044E00214020000000000000000000000000001D
:10045E00000000000000000000006108C218A21099
:10046E00A210A210A210A2100000D39CFFFFFFFF4B
:10047E00FFFFFFFFFFFFFBDE0000E739CF7B4D6B79
:10048E004D6B4D6B8E73CB5A0000000000000000C8
:10049E00000000000000000000000000000000004E
:1004AE00000000000000000000000000000000003E
:1004BE000000000000000000000000080010001006
:1004CE00000800000000000000100030005000483E
:1004DE0000200008000000000030007800A80098FE
:1004EE000058001800000000004800A800E021D8C5
:1004FE002290244003100100005020B860F0C2F09A
:10050E00E6B8AA7049300310004840A820E142F234
:10051E00A8D2CEA1AE6026202038C09040D201F4E1
:10052E0065EC4BC36D7947286030C089A0D340F588
:10053E00A2F566C4287264200031418B22CDE3DD22
:10054E0005CE279D064BE2108129237CC7A50C9E64
:10055E000E7EED55092483094219C84B705D9745EF
:10056E00B82DD41D4C0CC401E308EC1AB7241D158C
:10057E001C0DB5042B03230183002D02F8039D04EB
:10058E003904F0026601610042004801B1025503D0
:10059E00D202690162000000200083004801AA0116
:1005AE0048018300000000000000200042006200AD
:1005BE0042002000000000000000000000000000CB
:1005CE000000000000000000FFFFFFFFFFFFFFFF25
:1005DE00FFFFFFFFFFFFFFFFFFFFFFFFFFFFFFFF1D
:1005EE00FFFFFFFFFFFFFFFFFFFFFFFFFFFFFFFF0D
:1005FE00FFFFFFFFFFFFFFFFFFFFFFFFFFFFFFFFFD
:10060E00FFFFFFFFFFFFFFFFFFFFFFFFFFFFFFFFEC
:10061E00FFFFFFFFFFFFFFFFFFFFFFFFFFFFFFFFDC
:10062E00FFFFFFFFFFFFFFFFFFFFFFFF00000000C8
:10063E0000000000FFFFFFFFFFFF000060C860C862
:10064E0063F400000000FFFF000060C863F463F471
:10065E0063F4FFFFFFFF000060C863F460C860C86A
:10066E0060C80000FFFF000063F463F460C860C858
:10067E0060C8FFFFFFFF000060C863F460C860C879
:10068E0060C80000FFFF0000000060C863F463F460
:10069E0063F4FFFFFFFF0000FFFF000060C860C8AB
:1006AE0063F400000000FFFFFFFFFFFF00000000EB
:1006BE0000000000FFFFFFFFFFFFFFFFFFFFFFFF38
:1006CE00FFFFFFFFFFFFFFFFFFFFFFFFFFFFFFFF2C
:1006DE00FFFFFFFFFFFFFFFFFFFFFFFFFFFFFFFF1C
:1006EE00FFFFFFFFFFFFFFFFFFFFFFFFFFFFFFFF0C
:1006FE00FFFFFFFFFFFFFFFFFFFFFFFFFFFFFFFFFC
:10070E00FFFFFFFFFFFFFFFF0000000000000000E3
:10071E0000000000000000000000000000000000CB
:10072E000000000000000000000000000DF80000B6
:10073E000000000000000DF8000000000DF80000A1
:10074E000000000000000DF80DF80DF80DF80DF882
:10075E000DF80DF80DF80DF8000000000DF8000072
:10076E0000000000000000000DF80DF80DF80DF867
:10077E000DF80DF80DF80DF8000000000000000057
:10078E0000000000000000000000000000000DF856
:10079E000DF80DF80DF80000000000000DF80DF832
:1007AE00000000000DF80DF8000000000DF800002C
:1007BE000000000000000DF80000000000000DF821
:1007CE00000000000DF800000DF80DF80DF80DF802
:1007DE000DF80DF80DF80DF80000000000000000F7
:1007EE0000000000000000000000FFFFFFFF0000FF
:1007FE00FFFFFFFFFFFF0000FFFF00000000FFFFF5
:10080E00000000000000FFFFFFFF00000000FFFFE0
:10081E00000000000000FFFFFFFFFFFFFFFFFFFFD4
:10082E00FFFF0000FFFFFFFF0000FFFFFFFF0000C4
:10083E00FFFFFFFFFFFF00000000000000000000B0
:10084E00000000000000000000000000000000009A
:10085E000000000000000000000000000000210069
:10086E00000000000000000000000000246A056A7D
:10087E00C08945B345BBC5AB000023C304B3E2B288
:10088E0005B304B324B300008028E4AAA872728CC6
:10089E000793008266BB602803ABC2B2B494B70262
:1008AE00B9ADA1AA44BB02BB82A2639A67B3304B17
:1008BE00E4AAE089619A000003BB44BB23BB23BBBF
:1008CE0065CB02B343B323CB000005B3F2AC56ADF8
:1008DE00D8B525A323AB2000200064CBF8BDD802E9
:1008EE0078E623BB65C3000000000000610800002D
:1008FE00E3CA23B303BB44CB000000000000000892
:10090E00000000000100A40020002000941C360509
:10091E00570DF6043605000840005024DB15B72DA0
:10092E001706B404F604200001103705F7D518CECB
:10093E00DAD6780DB90D97051B0EF203F004D60A20
:10094E003A155705991D2000D90DB805FA0D580D09
:10095E003605F5047805D90520003705F8059AD631
:10096E00144D360D1605200820082D0336C6F71235
:10097E00B77CB80DB825200041082000C809010039
:10098E005805D805D905161D41084108200020003C
:10099E008528AB58B7B299CA4108210875BA99CAC9
:1009AE0098D279CA929920004108863079CAF9D531
:1009BE00F8CB59D279CAF1918210BBDA3BE7D03A23
:1009CE00961B38C27ADACF7146309AD2FCE2567252
:1009DE0078C278C2D7C2CC614100DAD27DEA79CB37
:1009EE001AD458C2B9D2149B4108BAD29DE69CF7CC
:1009FE008F3278BA18BB000861088000BAC258441A
:100A0E00377A37C239CA77B361086108410841089D
:100A1E000120004841B041B861086108204821B862
:100A2E0000D000C822A000008108003820C899D646
:100A3E00D7ED00C000C841C0621001E8078AFFBEB2
:100A4E00591B20C023B80208621020D020C861C8EC
:100A5E0020D800C801C881B0821001E800E0DAD6C3
:100A6E00FBFE00C800D00000610883A061A8DCCEA8
:100A7E00DB1200D000D8428182106108000801000C
:100A8E006180400000000000000000000000000037
:100A9E000000000000000000000000000000000048
:100AAE0000000000000000000000200720072007C3
:100ABE000000E4FEE4FEE4FE00002007200720070D
:100ACE000000E4FEE4FEE4FE0000200720072007FD
:100ADE000000E4FEE4FEE4FE000000000000000062
:100AEE000000000000000000000000F800F800F810
:100AFE0000001C431C431C43000000F800F800F8E3
:100B0E0000001C431C431C43000000F800F800F8D2
:100B1E0000001C431C431C430000000000000000AA
:100B2E0000000000000000000000000000000000B7
:100B3E0000000000000000000000000000000000A7
:100B4E000000000000000000000000000000000097
:100B5E00000000000000000000002C02152CD42B19
:100B6E00C4000000000000004E023804B9143A35EB
:100B7E00184D820000000000D603990CFA247B4D1C
:100B8E00DC5D134400000000F102B9143A35BC5D7F
:100B9E003D6E3D766B2200004200730B1A35BB553D
:100BAE001D66FC657B4D2B120601370CFA1C5B3D56
:100BBE007B4D7B4D982CC400741B1804990CDA1CC9
:100BCE00FA24DA24E50000001644F713170458043B
:100BDE00790C4D02000000006801584CD71BD7035A
:100BEE00D102200000000000000042082719E61084
:100BFE0000000000000000002218ADA934E393D3DA
:100C0E0047510000000000008EB1F3EA94EBF5EBC3
:100C1E00B7EC05390000000031DA54EBF5EB76EC59
:100C2E00D7EC54CC21080000497974EB15ECB7ECE5
:100C3E0038ED18ED2FA3000000002D9AF5EB76ECA1
:100C4E00D7ECB7EC56EC0C820971F3EA94EB15EC89
:100C5E0036EC36ECCFAA200053E252EAF3EA74EBFC
:100C6E0094EB32D32110000031CA33EA12EA93EA30
:100C7E00B3EAE648000000002320F0B9F3E951D9A9
:100C8E00A760000000000000000000000008000047
:100C9E00000000000000000040182481E7B108B2F7
:100CAE008248000000000000448165A945B985C155
:100CBE0069D2813800000000659945B185C1A5D182
:100CCE00A5D9E6C100080000A25045B185C9A5D935
:100CDE0085E1A6E1449900000000E47865C1A5D144
:100CEE00A5D9A5D9A5C9C368E25065A945B985C1DD
:100CFE00A5C985C9E480000048A2A5A165A945B192
:100D0E0045B925A100080000288A48A2A5A185A101
:100D1E0085A96130000000002010C679E79964892A
:100D2E00A1380000000000000000000000000000DC
:100D3E0000000000000000000000000000000000A5
:100D4E000000000000000000000000000000000095
:100D5E000000000000000000000002E800D000D8F3
:100D6E0000D802E821E000000000406B407360FDF7
:100D7E0040FD41FD00000000000040FD206B40FDE5
:100D8E0060FD207340FD80F50000000040FD60F521
:100D9E0040F5206B206B00000000406B4073A06399
:100DAE0060730000000000000000406B20730073B1
:100DBE000073805B2073000021FD406B40E000D883
:100DCE0040D020D0407321FD60FD60FD00D800D8DA
:100DDE0000D800D880FD60FD000000D000D80000D3
:100DEE00000000D802D000000000406B40630000FD
:100DFE000000606B406B000000000000000000006F
:100E0E0000000000000000000000000000000000D4
:100E1E0000000000000000000000000000000000C4
:100E2E0000000000000000000000000000000000B4
:100E3E00000000000000000000000000000020087C
:100E4E00C380A28820100000000000000000C380B4
:100E5E0024F9C3F8E3B02010000000002008C3A856
:100E6E00C2F082D0C3F082800000C03B615383B0D9
:100E7E0062F082D882D082B8E032E097004442B06D
:100E8E0062F082E082D082B8A06EE09F20120398BA
:100E9E00A2F882E061D882C0E154E043400083A80A
:100EAE0082F861E082F86178000000000000827034
:100EBE00E3F882F882B0000000000000000000009D
:100ECE0041684170000000000000000000000000BA
:100EDE000000000000000000000000000000000004
:100EEE0000000000000000000000000000000000F4
:100EFE00E448000000000000000000004669EAC15E
:100F0E000BDAC9A1A2300000000068916CE22CEA55
:100F1E002CEA6CEA2BDA00008228EAC98DEA2CEA68
:100F2E002CEA4CEA6CF24671E450AB612D624CEA4D
:100F3E002CEA0C822D62C9A9E5506A39ED310CAA52
:100F4E000BBAED31ED39C9A127518B29AC296A595C
:100F5E008A69AC29CC310CA2E648AC29FFFF4A398C
:100F6E004949FFFFAC292C92A338AC31AC298A69D0
:100F7E000BA2AC29CD3147618228AB61CC39CAA90D
:100F8E000BD2ED490D5A2561000068814CCA2CEA3E
:100F9E002CEA4CE22BCA0000000000008881EAC94E
:100FAE002CEA4CD2A2300000000000000000A33852
:100FBE00E4480000000000000000000000000000F7
:100FCE000000000000000000000000000000000013
:100FDE000000000000000000000000000000000003
:100FEE0040FFE0FFE0FF000000000000000060F4A2
:100FFE0060FD00000000000040F80000E0F9E0FA9B
:10100E0020FC40FD40FE0000000800F8A0F80000A3
:10101E0060FAA0FB2000C0FD0000200000F860F880
:10102E0020F920FA000060FC0000000002D801F850
:10103E0020F8E0F8000000000000000006B004D028
:10104E0001E800F8000060F900000E600B8000005F
:10105E0004C802E0000040F8141800000F500C788D
:10106E00089805B803D800000000000000001048E2
:10107E000D680000000000000000000000000000ED
:10108E0011380E580B800000000000000000000018
:10109E000000000000000000000000000000000042
:1010AE000000000000000000000000000000000032
:1010BE000000000000000000000000000000000022
:1010CE000000000000000000000000000000000012
:1010DE000000000000000000000000000000000002
:1010EE000000000000000000000000004031C16A56
:1010FE00C16A2029000000000000E38002F581FE95
:10110E0081FE22F642830000236965E1E2ECA5FE32
:10111E00A5FE81FE22F6426247CAC6E10EDDFA6CDA
:10112E00584CCCAD42E683BC0AE307E2F6B4BA5C97
:10113E00F733D35C8855E68C88CAE7E16ED3D96461
:10114E00584CAF6DA94DE73B4369A6E104D9E8B20F
:10115E00AB6DC94D684D032200000379077CA94D84
:10116E00A94D694DC42A0000000000002111632220
:10117E0043220111000000000000000000000000EA
:10118E000000000000000000F894EE27ECBBF1E038
:10119E00FBBFEBBFE5BFF8E1F1BDE1BD8DE0A2E025
:1011AE00BB27ED938A95E9F780E094E0A0E6ED93F6
:1011BE000197E9F7EFE5EDBFE4E0EEBFC0EAD0E05E
:1011CE0026C118950A921A92AA93BA93EA93FA93A1
:1011DE00EFB7EA93F894A091A000A93008F403C0E9
:1011EE00E0E0E093A000E091A100A8E1EA9FF00109
:1011FE00ED55FF4FDF01E091A000F0E0AE0FBF1FF5
:10120E00EC91E3BDE091A100A8E1EA9FF001E55564
:10121E00FF4FDF01E091A000F0E0AE0FBF1FEC9199
:10122E00F0E0FBBDEABDE091A100A8E1EA9FF0016C
:10123E00ED54FF4FDF01E091A000F0E0AE0FBF1FB5
:10124E00EC91F0E0F9BDE8BDE091A000EF5FE09316
:10125E00A000E150A1E092D3E2BB7894E991EFBFF8
:10126E00F991E991B991A991199009901895AA93BC
:10127E00EA93FA93EFB7EA93E4EBE2BFE091A200B0
:10128E00A091A100AE1708F402C0E0E004C0E09106
:10129E00A100F0E03196E093A100E991EFBFF99142
:1012AE00E991A9911895E0E0E5BFF8941FD222D2FA
:1012BE0008952397E0E0E883E983EA8393D300E07F
:1012CE0010E0E985FA8562D3E093A20040E0E09158
:1012DE00A200E41708F498C050E0583008F092C00D
:1012EE00E985FA850E171F0708F402C000E010E02A
:1012FE00F8010F5F1F4FAB85BC85EA0FFB1F0490F3
:10130E001124F8010F5F1F4FEA0FFB1FE491FE2F10
:10131E00E0E0E029F1299F01F901E070F87F38D370
:10132E00EF2FF0E0E887F901E07EF770F695E7958C
:10133E002DD3EF83E22FEF71EE83A8E14A9FF001E8
:10134E00ED55FF4FDF01E52FF0E0EA0FFB1FFF9396
:10135E00EF93E885FF276627772747D2DF01CB017A
:10136E00E0E0F0E068EF71E4BCD2A0E0B0E08CED1C
:10137E0092E469D2AF91BF91FFD1EC93A8E14A9F5D
:10138E00F001E555FF4FDF01E52FF0E0EA0FFB1FFF
:10139E00FF93EF93EF81FF276627772726D2DF0192
:1013AE00CB01E0E0F0E06CE772E49BD2A0E0B0E0AD
:1013BE0082E093E448D2AF91BF91DED1EC93A8E1E5
:1013CE004A9FF001ED54FF4FDF01E52FF0E0EA0FE9
:1013DE00FB1FFF93EF93EE81FF276627772705D23A
:1013EE00DF01CB01E0E0F0E068EF71E47AD2A0E03B
:1013FE00B0E082E093E427D2AF91BF91BDD1EC93E0
:10140E005F5F6BCF4F5F63CFF4D22D96089510E0E0
:10141E00F894E0E0E8BBEEE0E7BBE0E4E5BBE0E03B
:10142E00E4BBE2BBEFEFE1BBE3E0E3BFE4EBE2BF23
:10143E00E1EFEFBDE1E0EEBDE0E0EDBDECBDE7BDFF
:10144E00E6BDEBBDEABDE9BDE8BDE2BDE1E7E5BD48
:10145E00E0E0E4BDE3BDE5BFE5E4E9BFE0E0EAB905
:10146E00E0E8E8B9E0E0E0BFE6B9EDB9E6BFE4B721
:10147E00E0FF53C0E0E0E4BFE4E6E3BD10E0183067
:10148E0008F00BC0E12FA1E079D2E2BBE4E6F0E078
:10149E00FA93EA9338D11F5FF2CFE0E0F0E0F9BDA6
:1014AE00E8BDFBBDEABDE3BDE4E6F0E0FBBDEABD91
:1014BE0010E0183008F00BC0E12FA1E05FD2E2BBC4
:1014CE00E4E6F0E0FA93EA931ED11F5FF2CFE0E07C
:1014DE00F0E0F9BDE8BDFBBDEABDE3BDE4E6F0E03A
:1014EE00F9BDE8BD10E0183008F00BC0E12FA1E007
:1014FE0045D2E2BBE4E6F0E0FA93EA9304D11F5F33
:10150E00F2CFE0E0F0E0F9BDE8BDFBBDEABDE3BD22
:10151E00E2BBA0E0B0E055D2C6DEE4B7E1FF1DC0ED
:10152E00A0E0B0E042D2EF3008F402C0E1E005C026
:10153E00A0E0B0E03AD2F0E03196A0E0B0E041D2C7
:10154E00E0E0E4BFA0E0B0E030D2EE3008F405C039
:10155E00A0E0B0E0E0E035D2A6DEA0E0B0E025D21B
:10156E00F0E0E130A0E0FA0709F00AC0E6E2F0E0B0
:10157E00FA93EA93E0E3F2E0FA93EA939ADEB3C0C9
:10158E00E230A0E0FA0709F00AC0E6E5F2E0FA93CD
:10159E00EA93E0E6F2E0FA93EA938BDEA4C0E3303E
:1015AE00A0E0FA0709F00AC0E6EBF4E0FA93EA933A
:1015BE00E0E2F1E0FA93EA937CDE95C0E430A0E03D
:1015CE00FA0709F00AC0E6EDF5E0FA93EA93E0E4D3
:1015DE00F1E0FA93EA936DDE86C0E530A0E0FA07FB
:1015EE0009F00AC0E6E1F7E0FA93EA93E0E5F1E0EC
:1015FE00FA93EA935EDE77C0E630A0E0FA0709F0D0
:10160E000AC0E6E6F8E0FA93EA93E0E3F2E0FA9332
:10161E00EA934FDE68C0E730A0E0FA0709F00AC08F
:10162E00E6E9FAE0FA93EA93E0EBF0E0FA93EA9354
:10163E0040DE59C0E830A0E0FA0709F00AC0E6E43F
:10164E00FBE0FA93EA93E0EFF1E0FA93EA9331DEEE
:10165E004AC0E930A0E0FA0709F00AC0E6E3FDE06F
:10166E00FA93EA93E0E0F1E0FA93EA9322DE3BC0CC
:10167E00EA30A0E0FA0709F00AC0E6E3FEE0FA93CA
:10168E00EA93E0EBF0E0FA93EA9313DE2CC0EB3032
:10169E00A0E0FA0709F00AC0E6EEFEE0FA93EA933C
:1016AE00E0EFF0E0FA93EA9304DE1DC0EC30A0E028
:1016BE00FA0709F00AC0E6EDFFE0FA93EA93E0E0DC
:1016CE00F1E0FA93EA93F5DD0EC0ED30A0E0FA07F3
:1016DE0009F009C0E6EDF0E1FA93EA93E0ECF0E0F0
:1016EE00FA93EA93E6DD7894FFCFFFCFE5B7E06893
:1016FE00E5BF0895E5B7EF78E062E5BFEFB7789400
:10170E008895EFBF0895E991F991309639F084EFFD
:10171E0091E00197F1F7A8953197C9F708955523F0
:10172E0042F4503811F4E0FF04C03196691F791F5E
:10173E006BF050E8572711F45F9373C05F3F31F0A1
:10174E00660F000C57956795752F08955F930020CF
:10175E000AF073C06CC050E8192E1522880F991F1D
:10176E009527550F879550E8072E0522660F771F90
:10177E007527550F67950895689401C0E8945F9397
:10178E00F2DF703818F07F3F08F44BC056E1571B5C
:10179E00AAF4519558300EF4593030F0EFEFFFEFB8
:1017AE006FEF7FE777F91AC077275523B9F0EE0F61
:1017BE00FF1F661F771F5A95D1F710C07727583035
:1017CE0028F0EF2FF62F672F5850F9CF552331F011
:1017DE0076956795F795E7955A95D1F700200AF417
:1017EE00C5D05F910895689401C0E8943097604029
:1017FE007040B1F0002426F0772312F40094B6D096
:10180E00172E7EE1112032F07A95EE0FFF1F661F24
:10181E00111CF9CFEF2FF62F612D5F938ADF5F91A9
:10182E000895EE27FF27662777275F910895EFEF3C
:10183E00FFEF6FE77FEF5F910895EFEFFFEF6FE739
:10184E007FE75F9108955F9386DF703851F390388C
:10185E0041F301240894791F23F41CF300203AF37A
:10186E00ECCF0F921F932F933F934F931127222765
:10187E009927689FA0018F9F302D410D591F6B9F97
:10188E00300D411D591F8E9F27D0BF9F25D06A9FB7
:10189E0023D0BE9F1DD0AF9F1BD0AE9F110D291F11
:1018AE00391F491F591FE32FF42F652F522F4F91C8
:1018BE003F912F911F910F9066232AF0550FEE1F27
:1018CE00FF1F661F02C073954BF229DF5F910895CB
:1018DE00100D211D391F02C0200D311D491F591F2A
:1018EE0008955F9338DF703821F411200AF49FCFEA
:1018FE00A4CF903809F495CF01240894970B1BF4CC
:10190E00D4F30020F3CF792F1F932F933F934F9350
:10191E0011241127222733274427552790E2AE178B
:10192E00BF078607410730F0AE1BBF0B860B410B7E
:10193E00089401C08894551F221F331F111CAA1F23
:10194E00BB1F881F441F9A9551F7F901612D4F91C6
:10195E003F912F911F91662332F0550FEE1FFF1FFF
:10196E00661F7A9543F2DBDE5F910895F0956095E0
:10197E007095E195FF4F6F4F7F4F0895EE230E2E1A
:10198E00EA2F19F0EE0F0A94E9F70895F695E79508
:10199E00F695E795F695E795F695E7950895FE2F5A
:1019AE00FF0FFF0B6F2F7F2F0895E199FECFFF934F
:1019BE00FFB7F894AEBBBFBBE09AEDB3FFBFFF918C
:1019CE000895E19B02C0A895FCCF9FB7F894AEBBDB
:1019DE00BFBBE09A8DB3E81719F0EDBBE29AE19A1E
:1019EE009FBF08955A934A933A932A931A930A9350
:1019FE0008955D814C813B812A811981088108956A
:00000001FF
