:04000000A2C0FECFCD
:10000400FDCFFCCFBCC0FACFF9CFF8CFB7C00CC13D
:10001400F5CFF4CFF3CFF2CFF1CFF0CFEFCFEECFD8
:10002400EDCF410841084108410841084108410811
:100034004108410800F8410800F841084108410816
:10004400410800F8410800F8410800F84108410857
:10005400410800F841084108410800F841084108F6
:100064004108410800F8410800F8410841084108E6
:1000740041084108410800F8410841084108410885
:1000840041084108410841084108E0074108E007E8
:100094004108410841084108E0074108E0074108D8
:1000A400E007410841084108E007410841084108C8
:1000B400E0074108410841084108E0074108E0071A
:1000C400410841084108410841084108E007410846
:1000D40041084108410841084108410841084108D4
:1000E400410841081F0041081F0041084108410818
:1000F40041081F0041081F0041081F004108410832
:1001040041081F004108410841081F0041084108F7
:10011400410841081F0041081F00410841084108E7
:100124004108410841081F004108410841084108AD
:100134004108410841084108410841084108410873
:100144004108F894EE27ECBBF1E0FBBFEBBFE5BF41
:10015400F8E1F1BDE1BD8DE0A2E0BB27ED938A9506
:10016400E9F780E094E0A0E6ED930197E9F7EFE585
:10017400EDBFE4E0EEBFC0E6D1E026C118950A92D7
:100184001A92AA93BA93EA93FA93EFB7EA93F8947C
:10019400A0916001A93008F403C0E0E0E09360019D
:1001A400E0916101A8E1EA9FF001ED59FE4FDF0102
:1001B400E0916001F0E0AE0FBF1FEC91E3BDE09170
:1001C4006101A8E1EA9FF001E559FE4FDF01E091EA
:1001D4006001F0E0AE0FBF1FEC91F0E0FBBDEABDA3
:1001E400E0916101A8E1EA9FF001ED58FE4FDF01C3
:1001F400E0916001F0E0AE0FBF1FEC91F0E0F9BDBB
:10020400E8BD7894E0916001EF5FE0936001E15014
:10021400A1E0D4D2E2BBE991EFBFF991E991B991A0
:10022400A991199009901895AA93EA93FA93EFB7B4
:10023400EA93E4E6E2BFE0916201A0916101AE17A6
:1002440008F402C0E0E004C0E0916101F0E03196FE
:10025400E0936101E991EFBFF991E991A9911895B2
:10026400E0E0E5BFF89462D165D108952397E0E01A
:10027400E883E983EA83D6D200E010E0E985FA85D1
:10028400A5D2E093620140E0E0916201E41708F432
:1002940098C050E0583008F092C0E985FA850E17EE
:1002A4001F0708F402C000E010E0F8010F5F1F4FC1
:1002B400AB85BC85EA0FFB1F04901124F8010F5F86
:1002C4001F4FEA0FFB1FE491FE2FE0E0E029F12924
:1002D4009F01F901E070F87F7BD2EF2FF0E0E8870F
:1002E400F901E07EF770F695E79570D2EF83E22F7F
:1002F400EF71EE83A8E14A9FF001ED59FE4FDF0153
:10030400E52FF0E0EA0FFB1FFF93EF93E885FF274B
:10031400662777278AD1DF01CB01E0E0F0E068EFC0
:1003240071E4FFD1A0E0B0E080EF92E4ACD1AF91F2
:10033400BF9142D1EC93A8E14A9FF001E559FE4FE9
:10034400DF01E52FF0E0EA0FFB1FFF93EF93EF814E
:10035400FF276627772769D1DF01CB01E0E0F0E0D2
:100364006CE772E4DED1A0E0B0E080EF92E48BD1E0
:10037400AF91BF9121D1EC93A8E14A9FF001ED58D0
:10038400FE4FDF01E52FF0E0EA0FFB1FFF93EF9331
:10039400EE81FF276627772748D1DF01CB01E0E014
:1003A400F0E068EF71E4BDD1A0E0B0E080EF92E44A
:1003B4006AD1AF91BF9100D1EC935F5F6BCF4F5F78
:1003C40063CF37D22D96089510E0F894E0E0E8BBAF
:1003D400EEE0E7BBE0E4E5BBE0E0E4BBE2BBEFEF6B
:1003E400E1BBE3E0E3BFE4E6E2BFE1EFEFBDE9E058
:1003F400EEBDE0E0EDBDECBDE7BDE6BDEBBDEABDA5
:10040400E9BDE8BDE2BDE9E7E5BDE0E0E4BDE3BD8B
:10041400E5BFE5E4E9BFE0E0EAB9E0E8E8B9E0E037
:10042400E0BFE6B9EDB9E6BFE4B7E0FF53C0E0E0F2
:10043400E4BFE4E6E3BD10E0183008F00BC0E12FA0
:10044400A1E0BCD1E2BBE4E6F0E0FA93EA937BD00E
:100454001F5FF2CFE0E0F0E0F9BDE8BDFBBDEABD0F
:10046400E3BDE4E6F0E0FBBDEABD10E0183008F0BF
:100474000BC0E12FA1E0A2D1E2BBE4E6F0E0FA93E5
:10048400EA9361D01F5FF2CFE0E0F0E0F9BDE8BD90
:10049400FBBDEABDE3BDE4E6F0E0F9BDE8BD10E074
:1004A400183008F00BC0E12FA1E088D1E2BBE4E6EC
:1004B400F0E0FA93EA9347D01F5FF2CFE0E0F0E078
:1004C400F9BDE8BDFBBDEABDE3BDE2BBA0E0B0E021
:1004D40098D1C6DEE4B7E1FF1DC0A0E0B0E085D14D
:1004E400E33008F402C0E1E005C0A0E0B0E07DD153
:1004F400F0E03196A0E0B0E084D1E0E0E4BFA0E019
:10050400B0E073D1E23008F405C0A0E0B0E0E0E070
:1005140078D1A6DEE6E2F0E0FA93EA93E0E2F1E0D5
:10052400FA93EA93A3DE7894FFCFFFCFE5B7E068B0
:10053400E5BF0895E5B7EF78E062E5BFEFB77894DB
:100544008895EFBF0895E991F991309639F084EFD9
:1005540091E00197F1F7A8953197C9F708955523CC
:1005640042F4503811F4E0FF04C03196691F791F3A
:100574006BF050E8572711F45F9373C05F3F31F07D
:10058400660F000C57956795752F08955F930020AB
:100594000AF073C06CC050E8192E1522880F991FF9
:1005A4009527550F879550E8072E0522660F771F6C
:1005B4007527550F67950895689401C0E8945F9373
:1005C400F2DF703818F07F3F08F44BC056E1571B38
:1005D400AAF4519558300EF4593030F0EFEFFFEF94
:1005E4006FEF7FE777F91AC077275523B9F0EE0F3D
:1005F400FF1F661F771F5A95D1F710C07727583011
:1006040028F0EF2FF62F672F5850F9CF552331F0EC
:1006140076956795F795E7955A95D1F700200AF4F2
:10062400C5D05F910895689401C0E8943097604004
:100634007040B1F0002426F0772312F40094B6D071
:10064400172E7EE1112032F07A95EE0FFF1F661F00
:10065400111CF9CFEF2FF62F612D5F938ADF5F9185
:100664000895EE27FF27662777275F910895EFEF18
:10067400FFEF6FE77FEF5F910895EFEFFFEF6FE715
:100684007FE75F9108955F9386DF703851F3903868
:1006940041F301240894791F23F41CF300203AF356
:1006A400ECCF0F921F932F933F934F931127222741
:1006B4009927689FA0018F9F302D410D591F6B9F73
:1006C400300D411D591F8E9F27D0BF9F25D06A9F93
:1006D40023D0BE9F1DD0AF9F1BD0AE9F110D291FED
:1006E400391F491F591FE32FF42F652F522F4F91A4
:1006F4003F912F911F910F9066232AF0550FEE1F03
:10070400FF1F661F02C073954BF229DF5F910895A6
:10071400100D211D391F02C0200D311D491F591F05
:1007240008955F9338DF703821F411200AF49FCFC5
:10073400A4CF903809F495CF01240894970B1BF4A7
:10074400D4F30020F3CF792F1F932F933F934F932C
:1007540011241127222733274427552790E2AE1767
:10076400BF078607410730F0AE1BBF0B860B410B5A
:10077400089401C08894551F221F331F111CAA1FFF
:10078400BB1F881F441F9A9551F7F901612D4F91A2
:100794003F912F911F91662332F0550FEE1FFF1FDB
:1007A400661F7A9543F2DBDE5F910895F0956095BC
:1007B4007095E195FF4F6F4F7F4F0895EE230E2EF6
:1007C400EA2F19F0EE0F0A94E9F70895F695E795E4
:1007D400F695E795F695E795F695E7950895FE2F36
:1007E400FF0FFF0B6F2F7F2F0895E199FECFFF932B
:1007F400FFB7F894AEBBBFBBE09AEDB3FFBFFF9168
:100804000895E19B02C0A895FCCF9FB7F894AEBBB6
:10081400BFBBE09A8DB3E81719F0EDBBE29AE19AF9
:100824009FBF08955A934A933A932A931A930A932B
:1008340008955D814C813B812A8119810881089545
:00000001FF
