:060000005AC8FECFFDCF3F
:10000600FCCF74C8FACFF9CFF8CF6FC8C4C8F5CF04
:10001600F4CFF3CFF2CFF1CFF0CFEFCFEECFEDCFDE
:1000260000000000000000000000000000000000CA
:1000360000000000000000000000000000000000BA
:1000460000000000000000000000000000000000AA
:10005600000000000000000000000000000000009A
:1000660080CE80CE80CE80CE80CE60CE40CE0000C8
:10007600E1CEE1CEC1CEC1CE81CE61CE41CE80CD24
:1000860000000000000000000000000081CDE0CC70
:10009600000000000000000000000000E1CC20CCC1
:1000A60000000000000000000000000021CC60CB32
:1000B600E1CCA1CC61CC21CCE1CBA1CB61CBA0CA58
:1000C600A0CB60CB20CBE0CAA0CA60CA20CA000081
:1000D600000000000000000000000000000000001A
:1000E600000000000000000000000000000000000A
:1000F6000000000066FA46FA00000000000000005A
:10010600000006FA40D820D8A6F90000000000003A
:10011600C6F900D800D800D001C8A8E90000000040
:100126000000A7F101C802C002B803B0AAD10000BE
:1001360000000000AAD903B004A805A00698ADB136
:1001460000000000ACC10698069007880880AF99A9
:100156000000ADB10788088008780970B1890000F1
:10016600AEA1087809700A680B60B2790000000039
:100176000000B1810B580C50B37100000000000064
:1001860000000000B469B561000000000000000036
:100196000000000000000000000000000000000059
:1001A6000000000000000000000000000000000049
:1001B600B8410000B839B839B839B839B839B8399A
:1001C600112800001128112811281128112811289A
:1001D6000000000000000000000000000000000019
:1001E6000000000000000000000000000000000009
:1001F60000000000000000000000000000000000F9
:1002060000000000000000000000000000000000E8
:1002160000000000000000000000000000000000D8
:1002260000000000000000000000000000000000C8
:1002360021AD00000000000000000000000060A3E7
:10024600000020A40000000000000000E0A2000062
:100256000000000040A300A3C0A280A2000000008E
:100266000000E0A280A200000000C0A180A1000062
:10027600000020A20000A0A1E5D2000000A100001D
:10028600000080A1000000000000000060A0000047
:100296000000E0A0A0A080A040A020A000A0000038
:1002A6000000000000000000000000000000000048
:1002B60081A800A00098009801900190028864909F
:1002C60062A800980190018802800380037865780F
:1002D6006398028802800378047004680560676882
:1002E600648803700468056005580658075069500D
:1002F6000000056006580750074808400938000006
:10030600000007480840093809300A280B20000079
:10031600000009380A300A280B200C180C100000BF
:10032600000000000B18000000000D08000000008F
:10033600000000000D08000000000E000000000094
:1003460000000000000000000000000000000000A7
:100356000000000000000000000000000000000097
:100366000000000000000000000000000000000087
:100376000000000800100010000800000000000047
:100386000010003000500048002000080000000067
:100396000030007800A800980058001800000000FF
:1003A600004800A800E021D8229024400310010054
:1003B600005020B860F0C2F0E6B8AA7049300310C9
:1003C600004840A820E142F2A8D2CEA1AE60262085
:1003D6002038C09040D201F465EC4BC36D794728B4
:1003E6006030C089A0D340F5A2F566C428726420A7
:1003F6000031418B22CDE3DD05CE279D064BE21071
:100406008129237CC7A50C9E0E7EED550924830900
:100416004219C84B705D9745B82DD41D4C0CC401CC
:10042600E308EC1AB7241D151C0DB5042B03230194
:1004360083002D02F8039D043904F0026601610071
:1004460042004801B1025503D20269016200000070
:10045600200083004801AA01480183000000000033
:100466000000200042006200420020000000000060
:100476000000000000000000000000000000000076
:10048600FFFFFFFFFFFFFFFFFFFFFFFFFFFFFFFF76
:10049600FFFFFFFFFFFFFFFFFFFFFFFFFFFFFFFF66
:1004A600FFFFFFFFFFFFFFFFFFFFFFFFFFFFFFFF56
:1004B600FFFFFFFFFFFFFFFFFFFFFFFFFFFFFFFF46
:1004C600FFFFFFFFFFFFFFFFFFFFFFFFFFFFFFFF36
:1004D600FFFFFFFFFFFFFFFFFFFFFFFFFFFFFFFF26
:1004E600FFFFFFFF0000000000000000FFFFFFFF0E
:1004F600FFFF000060C860C863F400000000FFFF53
:10050600000060C863F463F463F4FFFFFFFF0000BC
:1005160060C863F460C860C860C80000FFFF0000E0
:1005260063F463F460C860C860C8FFFFFFFF0000A3
:1005360060C863F460C860C860C80000FFFF0000C0
:10054600000060C863F463F463F4FFFFFFFF00007C
:10055600FFFF000060C860C863F400000000FFFFF2
:10056600FFFFFFFF0000000000000000FFFFFFFF8D
:10057600FFFFFFFFFFFFFFFFFFFFFFFFFFFFFFFF85
:10058600FFFFFFFFFFFFFFFFFFFFFFFFFFFFFFFF75
:10059600FFFFFFFFFFFFFFFFFFFFFFFFFFFFFFFF65
:1005A600FFFFFFFFFFFFFFFFFFFFFFFFFFFFFFFF55
:1005B600FFFFFFFFFFFFFFFFFFFFFFFFFFFFFFFF45
:1005C6000000000000000000000000000000000025
:1005D6000000000000000000000000000000000015
:1005E600000000000DF800000000000000000DF8FB
:1005F600000000000DF800000000000000000DF8EB
:100606000DF80DF80DF80DF80DF80DF80DF80DF8BC
:10061600000000000DF800000000000000000000CF
:100626000DF80DF80DF80DF80DF80DF80DF80DF89C
:1006360000000000000000000000000000000000B4
:100646000000000000000DF80DF80DF80DF8000090
:10065600000000000DF80DF8000000000DF80DF880
:10066600000000000DF800000000000000000DF87A
:100676000000000000000DF8000000000DF800006A
:100686000DF80DF80DF80DF80DF80DF80DF80DF83C
:100696000000000000000000000000000000000054
:1006A6000000FFFFFFFF0000FFFFFFFFFFFF00004E
:1006B600FFFF00000000FFFF000000000000FFFF3A
:1006C600FFFF00000000FFFF000000000000FFFF2A
:1006D600FFFFFFFFFFFFFFFFFFFF0000FFFFFFFF22
:1006E6000000FFFFFFFF0000FFFFFFFFFFFF00000E
:1006F60000000000000000000000000000000000F4
:1007060000000000000000000000000000000000E3
:10071600000000000000C6015606560656062702CF
:100726000000E3008F04F405FB07FB07FB075606F2
:10073600A20096069B5F5B8FDB1FFB07FB072E0461
:10074600CD03DB2FFBDE1B84FB8EFB07DB07E30001
:100756003907FB079B671B135B17FB07FB0739076B
:10076600F405FB07DB1FDB2FFB07FB07FB072B0350
:100776008501DB1F1BBFDBDE7B6FFB07FB078501EC
:100786000000270A3BB7DB18DB46FB07FB07FB0726
:100796000000000041006601D104D104D104070223
:1007A6000000000000000000000000000000000043
:1007B60000002000E4286C6A96CC96CC96CC2A627F
:1007C60020002F93DBFDFBFDBBFDBBFDBBFDD7D49E
:1007D6008741DBFDDBE6FBDE3BF6BBFD5AED82180F
:1007E6007AF5DBFD5BD6DB18DBE5BBFDBBFD2F8BAE
:1007F6009BFDBBFDBBFD1BE5BBFDBBFDBBFD14BCF3
:100806004B6ABBFD5BEE9BE6DBFDBBFD5AED82183A
:100816006110B5C4BBD67B6B3BE6BBFDBBFDD2AB63
:1008260000004108094A91419BF5BBFDBBFD709B49
:1008360000000000000020004108410841080000B7
:1008460000000000000000000000000000000000A2
:10085600000000000058007000E800E800E800A072
:1008660000000070E3F8E7F182F800F800F800D81D
:10087600002020F8D7E57BCE72E400F800F80028C7
:1008860000B820F8F3E4BB310EBA00F800F800B85F
:1008960000B800F800F800F800F800F800F800C00A
:1008A600002000F8AEEBF7E58AF200F800F8002821
:1008B600000020789AE65B6B34C400F800F800C8A4
:1008C600000000000449A93803E000F800F800B071
:1008D6000000000000000000000000000000000012
:1008E60000000000000020002000200000000000A2
:1008F600000080100084E0FFE0FF60CEC05A0000D8
:10090600000040CEE0FFE0FFE0FFE0FFC0FF8052C6
:100916008052A0F7E0FF80F72063E0FFE0FFE0BD34
:100926008073E0FFE0FF80D6E039C0FFE0FF20E7FC
:100936008073E0FFE0FF80310000E0DEE0FF20E7AB
:100946000000A0D640EF00210000608CE0FFA0521E
:100956000000404A80B5000000002021A0B58010AC
:100966000000000000000000000000000000000081
:100976000000000000000000000000000000000071
:10098600E05A608C0000000000000000000000003B
:10099600A0DE40EF005A2008000000000000000022
:1009A60080D6E0FF80FDE0D100400238072002003B
:1009B6008052A0FF80FD40FA00D806B00F50120802
:1009C6000000606B40F540FA00F806B00F501308BF
:1009D60000000000008B40FA00F806B00C4003004F
:1009E6000000602900ED40FA00F8047000000000E5
:1009F60000000000008B40FA00F806A80A3001004B
:100A06000000805220ED40FA00F806B00F501108A1
:100A1600204280F780FD40FA00E806B00F50140827
:100A260000C6E0FF80FD20EA0050035009300300B5
:100A360040EFA0FFC07A2010000000000000000078
:100A46002063E09C000000000000000000000000A1
:100A56000000000000000000000000000000000090
:100A66000000000000000000000000000000000080
:100A76000000000000000000000000000000000070
:100A860000002C02152CD42BC4000000000000002E
:100A96004E023804B9143A35184D820000000000A1
:100AA600D603990CFA247B4DDC5D1344000000004C
:100AB600F102B9143A35BC5D3D6E3D766B220000FD
:100AC6004200730B1A35BB551D66FC657B4D2B1218
:100AD6000601370CFA1C5B3D7B4D7B4D982CC40000
:100AE600741B1804990CDA1CFA24DA24E5000000B9
:100AF6001644F71317045804790C4D020000000041
:100B06006801584CD71BD703D10220000000000013
:100B1600000042082719E61000000000000000004F
:100B26002218ADA934E393D347510000000000001A
:100B36008EB1F3EA94EBF5EBB7EC05390000000053
:100B460031DA54EBF5EB76ECD7EC54CC2108000007
:100B5600497974EB15ECB7EC38ED18ED2FA30000CE
:100B660000002D9AF5EB76ECD7ECB7EC56EC0C8240
:100B76000971F3EA94EB15EC36EC36ECCFAA2000BB
:100B860053E252EAF3EA74EB94EB32D321100000FD
:100B960031CA33EA12EA93EAB3EAE64800000000F3
:100BA6002320F0B9F3E951D9A76000000000000046
:100BB6000000000000080000000000000000000027
:100BC60040182481E7B108B2824800000000000006
:100BD600448165A945B985C169D281380000000004
:100BE600659945B185C1A5D1A5D9E6C10008000022
:100BF600A25045B185C9A5D985E1A6E14499000071
:100C06000000E47865C1A5D1A5D9A5D9A5C9C36851
:100C1600E25065A945B985C1A5C985C9E48000002A
:100C260048A2A5A165A945B145B925A100080000BE
:100C3600288A48A2A5A185A185A9613000000000E7
:100C46002010C679E7996489A138000000000000E9
:100C5600000000000000000000000000000000008E
:100C6600000000000000000000000000000000007E
:100C7600000000000000000000000000000000006E
:100C8600000002E800D000D800D802E821E0000009
:100C96000000406B407360FD40FD41FD0000000018
:100CA600000040FD206B40FD60FD207340FD80F597
:100CB6000000000040FD60F540F5206B206B000051
:100CC6000000406B4073A0636073000000000000EA
:100CD6000000406B207300730073805B207300007C
:100CE60021FD406B40E000D840D020D0407321FD6C
:100CF60060FD60FD00D800D800D800D880FD60FDFA
:100D0600000000D000D80000000000D802D000008B
:100D16000000406B406300000000606B406B000009
:100D260000000000000000000000000000000000BD
:100D360000000000000000000000000000000000AD
:100D4600000000000000000000000000000000009D
:100D5600000000000000000000000000000000008D
:100D66000000000000002008C380A28820100000B8
:100D7600000000000000C38024F9C3F8E3B020108F
:100D8600000000002008C3A8C2F082D0C3F0828011
:100D96000000C03B615383B062F082D882D082B833
:100DA600E032E097004442B062F082E082D082B83E
:100DB600A06EE09F20120398A2F882E061D882C05C
:100DC600E154E043400083A882F861E082F861784C
:100DD6000000000000008270E3F882F882B0000094
:100DE60000000000000000004168417000000000A3
:100DF60000000000000000000000000000000000ED
:100E060000000000000000000000000000000000DC
:100E16000000000000000000E448000000000000A0
:100E2600000000004669EAC10BDAC9A1A230000041
:100E3600000068916CE22CEA2CEA6CEA2BDA0000DE
:100E46008228EAC98DEA2CEA2CEA4CEA6CF2467151
:100E5600E450AB612D624CEA2CEA0C822D62C9A9E2
:100E6600E5506A39ED310CAA0BBAED31ED39C9A15D
:100E760027518B29AC296A598A69AC29CC310CA235
:100E8600E648AC29FFFF4A394949FFFFAC292C92B5
:100E9600A338AC31AC298A690BA2AC29CD314761A4
:100EA6008228AB61CC39CAA90BD2ED490D5A25610E
:100EB600000068814CCA2CEA2CEA4CE22BCA0000DE
:100EC600000000008881EAC92CEA4CD2A23000005A
:100ED600000000000000A338E44800000000000005
:100EE60000000000000000000000000000000000FC
:100EF60000000000000000000000000000000000EC
:100F0600000000000000000040FFE0FFE0FF0000DE
:100F160000000000000060F460FD0000000000001A
:100F260040F80000E0F9E0FA20FC40FD40FE000039
:100F3600000800F8A0F8000060FAA0FB2000C0FD41
:100F46000000200000F860F820F920FA000060FC9C
:100F56000000000002D801F820F8E0F800000000C8
:100F66000000000006B004D001E800F8000060F9B7
:100F760000000E600B80000004C802E0000040F88C
:100F8600141800000F500C78089805B803D8000014
:100F960000000000000010480D680000000000007E
:100FA600000000000000000011380E580B80000001
:100FB600000000000000000000000000000000002B
:100FC600000000000000000000000000000000001B
:100FD600000000000000000000000000000000000B
:100FE60000000000000000000000000000000000FB
:100FF60000000000000000000000000000000000EB
:1010060000000000000000000000000000000000DA
:10101600000000004031C16AC16A202900000000BA
:101026000000E38002F581FE81FE22F64283000085
:10103600236965E1E2ECA5FEA5FE81FE22F6426289
:1010460047CAC6E10EDDFA6C584CCCAD42E683BC0D
:101056000AE307E2F6B4BA5CF733D35C8855E68C4C
:1010660088CAE7E16ED3D964584CAF6DA94DE73B0A
:101076004369A6E104D9E8B2AB6DC94D684D0322B8
:1010860000000379077CA94DA94D694DC42A0000CB
:10109600000000002111632243220111000000001C
:1010A600000000000000000000000000000000003A
:1010B600F894EE27ECBBF1E0FBBFEBBFE5BFF8E130
:1010C600F1BDE1BD8DE0A2E0BB27ED938A95E9F77E
:1010D60080E094E0A0E6ED930197E9F7EFE5EDBF38
:1010E600E4E0EEBFC0EAD0E026C118950A921A9253
:1010F600AA93BA93EA93FA93EFB7EA93F894A09176
:10110600A000A93008F403C0E0E0E093A000E0915D
:10111600A100A8E1EA9FF001ED55FF4FDF01E09144
:10112600A000F0E0AE0FBF1FEC91E3BDE091A1007F
:10113600A8E1EA9FF001E555FF4FDF01E091A0002D
:10114600F0E0AE0FBF1FEC91F0E0FBBDEABDE09111
:10115600A100A8E1EA9FF001ED54FF4FDF01E09105
:10116600A000F0E0AE0FBF1FEC91F0E0F9BDE8BDC6
:10117600E091A000EF5FE093A000E150A1E08ED3E4
:10118600E2BB7894E991EFBFF991E991B991A99100
:10119600199009901895AA93EA93FA93EFB7EA93F0
:1011A600E4EBE2BFE091A200A091A100AE1708F423
:1011B60002C0E0E004C0E091A100F0E03196E093C7
:1011C600A100E991EFBFF991E991A9911895E0E0A5
:1011D600E5BFF8941BD21ED208952397E0E0E8837A
:1011E600E983EA838FD300E010E0E985FA855ED3D0
:1011F600E093A20040E0E091A200E41708F498C052
:1012060050E0583008F092C0E985FA850E171F079E
:1012160008F402C000E010E0F8010F5F1F4FAB8535
:10122600BC85EA0FFB1F04901124F8010F5F1F4FC6
:10123600EA0FFB1FE491FE2FE0E0E029F1299F0170
:10124600F901E070F87F34D3EF2FF0E0E887F90179
:10125600E07EF770F695E79529D3EF83E22FEF71DD
:10126600EE83A8E14A9FF001ED55FF4FDF01E52F20
:10127600F0E0EA0FFB1FFF93EF93E885FF27662751
:10128600772743D2DF01CB01E0E0F0E068EF71E4BD
:10129600B8D2A0E0B0E082E093E465D2AF91BF910E
:1012A600FBD1EC93A8E14A9FF001E555FF4FDF0122
:1012B600E52FF0E0EA0FFB1FFF93EF93EF81FF2787
:1012C6006627772722D2DF01CB01E0E0F0E06CE76A
:1012D60072E497D2A0E0B0E086E193E444D2AF9105
:1012E600BF91DAD1EC93A8E14A9FF001ED54FF4F8C
:1012F600DF01E52FF0E0EA0FFB1FFF93EF93EE818E
:10130600FF276627772701D2DF01CB01E0E0F0E077
:1013160068EF71E476D2A0E0B0E086E193E423D2F0
:10132600AF91BF91B9D1EC935F5F6BCF4F5F63CF46
:10133600F0D22D96089510E0F894E0E0E8BBEEE0D8
:10134600E7BBE0E4E5BBE0E0E4BBE2BBEFEFE1BB1B
:10135600E3E0E3BFE4EBE2BFE1EFEFBDE1E0EEBDCA
:10136600E0E0EDBDECBDE7BDE6BDEBBDEABDE9BD28
:10137600E8BDE2BDE1E7E5BDE0E0E4BDE3BDE5BF14
:10138600E5E4E9BFE0E0EAB9E0E8E8B9E0E0E0BFBB
:10139600E6B9EDB9E6BFE4B7E0FF53C0E0E0E4BF6D
:1013A600E4E6E3BD10E0183008F00BC0E12FA1E041
:1013B60075D2E2BBE4E6F0E0FA93EA9334D11F5F1C
:1013C600F2CFE0E0F0E0F9BDE8BDFBBDEABDE3BD6C
:1013D600E4E6F0E0FBBDEABD10E0183008F00BC013
:1013E600E12FA1E05BD2E2BBE4E6F0E0FA93EA93F8
:1013F6001AD11F5FF2CFE0E0F0E0F9BDE8BDFBBD1A
:10140600EABDE3BDE4E6F0E0F9BDE8BD10E0183062
:1014160008F00BC0E12FA1E041D2E2BBE4E6F0E028
:10142600FA93EA9300D11F5FF2CFE0E0F0E0F9BD56
:10143600E8BDFBBDEABDE3BDE2BBA0E0B0E051D232
:10144600C6DEE4B7E1FF13C0E0E0E4BFA0E0B0E031
:101456003CD2EF5F46D2E150A0E0B0E036D2EE30AB
:1014660008F405C0A0E0B0E0E0E03BD2B0DEA0E0CA
:10147600B0E02BD2F0E0E130A0E0FA0709F00AC0B4
:10148600E6E2F0E0FA93EA93E0EEF1E0FA93EA930B
:10149600A4DEB9C0E230A0E0FA0709F00AC0E6E02F
:1014A600F2E0FA93EA93E0E6F1E0FA93EA9395DE46
:1014B600AAC0E330A0E0FA0709F00AC0E6E6F3E0C6
:1014C600FA93EA93E0E2F1E0FA93EA9386DE9BC0B0
:1014D600E430A0E0FA0709F00AC0E6E8F4E0FA937F
:1014E600EA93E0E4F1E0FA93EA9377DE8CC0E53024
:1014F600A0E0FA0709F00AC0E6ECF5E0FA93EA93F1
:10150600E0E5F1E0FA93EA9368DE7DC0E630A0E01C
:10151600FA0709F00AC0E6E1F7E0FA93EA93E0E693
:10152600F2E0FA93EA9359DE6EC0E730A0E0FA07DC
:1015360009F00AC0E6E7F9E0FA93EA93E0EFF0E093
:10154600FA93EA934ADE5FC0E830A0E0FA0709F0B2
:101556000AC0E6E6FAE0FA93EA93E0EFF1E0FA93DE
:10156600EA933BDE50C0E930A0E0FA0709F00AC072
:10157600E6E5FCE0FA93EA93E0E0F1E0FA93EA9319
:101586002CDE41C0EA30A0E0FA0709F00AC0E6E521
:10159600FDE0FA93EA93E0EBF0E0FA93EA931DDEBE
:1015A60032C0EB30A0E0FA0709F00AC0E6E0FEE040
:1015B600FA93EA93E0EFF0E0FA93EA930EDE23C0A3
:1015C600EC30A0E0FA0709F00AC0E6EFFEE0FA9375
:1015D600EA93E0E0F1E0FA93EA93FFDD14C0ED3020
:1015E600A0E0FA0709F00AC0E6EFFFE0FA93EA93F3
:1015F600E0ECF0E0FA93EA93F0DD05C0A0E0B0E09D
:10160600E0E06FD1FAC47894FFCFFFCFE5B7E0688A
:10161600E5BF0895E5B7EF78E062E5BFEFB77894E8
:101626008895EFBF0895E991F991309639F084EFE6
:1016360091E00197F1F7A8953197C9F708955523D9
:1016460042F4503811F4E0FF04C03196691F791F47
:101656006BF050E8572711F45F9373C05F3F31F08A
:10166600660F000C57956795752F08955F930020B8
:101676000AF073C06CC050E8192E1522880F991F06
:101686009527550F879550E8072E0522660F771F79
:101696007527550F67950895689401C0E8945F9380
:1016A600F2DF703818F07F3F08F44BC056E1571B45
:1016B600AAF4519558300EF4593030F0EFEFFFEFA1
:1016C6006FEF7FE777F91AC077275523B9F0EE0F4A
:1016D600FF1F661F771F5A95D1F710C0772758301E
:1016E60028F0EF2FF62F672F5850F9CF552331F0FA
:1016F60076956795F795E7955A95D1F700200AF400
:10170600C5D05F910895689401C0E8943097604011
:101716007040B1F0002426F0772312F40094B6D07E
:10172600172E7EE1112032F07A95EE0FFF1F661F0D
:10173600111CF9CFEF2FF62F612D5F938ADF5F9192
:101746000895EE27FF27662777275F910895EFEF25
:10175600FFEF6FE77FEF5F910895EFEFFFEF6FE722
:101766007FE75F9108955F9386DF703851F3903875
:1017760041F301240894791F23F41CF300203AF363
:10178600ECCF0F921F932F933F934F93112722274E
:101796009927689FA0018F9F302D410D591F6B9F80
:1017A600300D411D591F8E9F27D0BF9F25D06A9FA0
:1017B60023D0BE9F1DD0AF9F1BD0AE9F110D291FFA
:1017C600391F491F591FE32FF42F652F522F4F91B1
:1017D6003F912F911F910F9066232AF0550FEE1F10
:1017E600FF1F661F02C073954BF229DF5F910895B4
:1017F600100D211D391F02C0200D311D491F591F13
:1018060008955F9338DF703821F411200AF49FCFD2
:10181600A4CF903809F495CF01240894970B1BF4B4
:10182600D4F30020F3CF792F1F932F933F934F9339
:1018360011241127222733274427552790E2AE1774
:10184600BF078607410730F0AE1BBF0B860B410B67
:10185600089401C08894551F221F331F111CAA1F0C
:10186600BB1F881F441F9A9551F7F901612D4F91AF
:101876003F912F911F91662332F0550FEE1FFF1FE8
:10188600661F7A9543F2DBDE5F910895F0956095C9
:101896007095E195FF4F6F4F7F4F0895EE230E2E03
:1018A600EA2F19F0EE0F0A94E9F70895F695E795F1
:1018B600F695E795F695E795F695E7950895FE2F43
:1018C600FF0FFF0B6F2F7F2F0895E199FECFFF9338
:1018D600FFB7F894AEBBBFBBE09AEDB3FFBFFF9175
:1018E6000895E19B02C0A895FCCF9FB7F894AEBBC4
:1018F600BFBBE09A8DB3E81719F0EDBBE29AE19A07
:101906009FBF08955A934A933A932A931A930A9338
:1019160008955D814C813B812A8119810881089552
:00000001FF
